{
  "_format": "hh-sol-artifact-1",
  "contractName": "DocumentVerification",
  "sourceName": "contracts/DocumentVerification.sol",
  "abi": [
    {
      "anonymous": false,
      "inputs": [
        {
          "indexed": true,
          "internalType": "bytes32",
          "name": "documentId",
          "type": "bytes32"
        },
        {
          "indexed": false,
          "internalType": "bytes32",
          "name": "hash",
          "type": "bytes32"
        },
        {
          "indexed": false,
          "internalType": "address",
          "name": "creator",
          "type": "address"
        }
      ],
      "name": "DocumentStored",
      "type": "event"
    },
    {
      "anonymous": false,
      "inputs": [
        {
          "indexed": true,
          "internalType": "bytes32",
          "name": "documentId",
          "type": "bytes32"
        },
        {
          "indexed": false,
          "internalType": "bool",
          "name": "authentic",
          "type": "bool"
        }
      ],
      "name": "DocumentVerified",
      "type": "event"
    },
    {
      "inputs": [
        {
          "internalType": "bytes32",
          "name": "",
          "type": "bytes32"
        }
      ],
      "name": "documents",
      "outputs": [
        {
          "internalType": "bytes32",
          "name": "hash",
          "type": "bytes32"
        },
        {
          "internalType": "address",
          "name": "creator",
          "type": "address"
        },
        {
          "internalType": "uint256",
          "name": "timestamp",
          "type": "uint256"
        },
        {
          "internalType": "bool",
          "name": "exists",
          "type": "bool"
        }
      ],
      "stateMutability": "view",
      "type": "function"
    },
    {
      "inputs": [
        {
          "internalType": "bytes32",
          "name": "documentId",
          "type": "bytes32"
        }
      ],
      "name": "getDocument",
      "outputs": [
        {
          "internalType": "bytes32",
          "name": "",
          "type": "bytes32"
        },
        {
          "internalType": "address",
          "name": "",
          "type": "address"
        },
        {
          "internalType": "uint256",
          "name": "",
          "type": "uint256"
        },
        {
          "internalType": "bool",
          "name": "",
          "type": "bool"
        }
      ],
      "stateMutability": "view",
      "type": "function"
    },
    {
      "inputs": [
        {
          "internalType": "bytes32",
          "name": "documentId",
          "type": "bytes32"
        },
        {
          "internalType": "bytes32",
          "name": "hash",
          "type": "bytes32"
        }
      ],
      "name": "storeDocument",
      "outputs": [],
      "stateMutability": "nonpayable",
      "type": "function"
    },
    {
      "inputs": [
        {
          "internalType": "bytes32",
          "name": "documentId",
          "type": "bytes32"
        },
        {
          "internalType": "bytes32",
          "name": "hash",
          "type": "bytes32"
        }
      ],
      "name": "verifyDocument",
      "outputs": [
        {
          "internalType": "bool",
          "name": "",
          "type": "bool"
        }
      ],
      "stateMutability": "view",
      "type": "function"
    }
  ],
  "bytecode": "0x608060405234801561001057600080fd5b50610359806100206000396000f3fe608060405234801561001057600080fd5b506004361061004c5760003560e01c80632b2805db146100515780633405819c146100c25780638fa9a8ce146100d7578063b10d6b41146100fa575b600080fd5b61009361005f3660046102e8565b600060208190529081526040902080546001820154600283015460039093015491926001600160a01b039091169160ff1684565b604080519485526001600160a01b03909316602085015291830152151560608201526080015b60405180910390f35b6100d56100d0366004610301565b61015e565b005b6100ea6100e5366004610301565b610272565b60405190151581526020016100b9565b6100936101083660046102e8565b600090815260208181526040918290208251608081018452815480825260018301546001600160a01b0316938201849052600283015494820185905260039092015460ff16151560609091018190529093919291565b60008281526020819052604090206003015460ff16156101c55760405162461bcd60e51b815260206004820152601760248201527f446f63756d656e7420616c72656164792065786973747300000000000000000060448201526064015b60405180910390fd5b604080516080810182528281523360208083018281524284860190815260016060860181815260008a815280865288902096518755925190860180546001600160a01b0319166001600160a01b03909216919091179055516002850155516003909301805460ff19169315159390931790925582518481529182015283917f6ef0587072107fc69bbdcbd21366a3862ce29bc6acc03e5880c0d5822fd7398d910160405180910390a25050565b60008281526020819052604081206003015460ff166102d35760405162461bcd60e51b815260206004820152601760248201527f446f63756d656e7420646f6573206e6f7420657869737400000000000000000060448201526064016101bc565b50600091825260208290526040909120541490565b6000602082840312156102fa57600080fd5b5035919050565b6000806040838503121561031457600080fd5b5050803592602090910135915056fea2646970667358221220cbcb2709854e7c28b3591a77d718c0f70785dc04df28c3cff43d8a64e330d98e64736f6c63430008130033",
  "linkReferences": {},
  "deployedLinkReferences": {}
}